{
  "_format": "hh-sol-artifact-1",
  "contractName": "UserDataStorage",
  "sourceName": "contracts/Contract.sol",
  "abi": [
    {
      "anonymous": false,
      "inputs": [
        {
          "indexed": true,
          "internalType": "address",
          "name": "user",
          "type": "address"
        },
        {
          "indexed": false,
          "internalType": "string",
          "name": "name",
          "type": "string"
        },
        {
          "indexed": false,
          "internalType": "string",
          "name": "email",
          "type": "string"
        },
        {
          "indexed": false,
          "internalType": "string",
          "name": "shippingAddress",
          "type": "string"
        },
        {
          "indexed": false,
          "internalType": "string",
          "name": "expectedDayOfArrival",
          "type": "string"
        },
        {
          "indexed": false,
          "internalType": "uint256",
          "name": "phoneNumber",
          "type": "uint256"
        },
        {
          "indexed": false,
          "internalType": "uint256",
          "name": "orderTotal",
          "type": "uint256"
        }
      ],
      "name": "UserDataUpdated",
      "type": "event"
    },
    {
      "inputs": [],
      "name": "getUserData",
      "outputs": [
        {
          "internalType": "string",
          "name": "",
          "type": "string"
        },
        {
          "internalType": "string",
          "name": "",
          "type": "string"
        },
        {
          "internalType": "string",
          "name": "",
          "type": "string"
        },
        {
          "internalType": "string",
          "name": "",
          "type": "string"
        },
        {
          "internalType": "uint256",
          "name": "",
          "type": "uint256"
        },
        {
          "internalType": "uint256",
          "name": "",
          "type": "uint256"
        }
      ],
      "stateMutability": "view",
      "type": "function"
    },
    {
      "inputs": [
        {
          "internalType": "string",
          "name": "_name",
          "type": "string"
        },
        {
          "internalType": "string",
          "name": "_email",
          "type": "string"
        },
        {
          "internalType": "string",
          "name": "_shippingAddress",
          "type": "string"
        },
        {
          "internalType": "string",
          "name": "_expectedDayOfArrival",
          "type": "string"
        },
        {
          "internalType": "uint256",
          "name": "_phoneNumber",
          "type": "uint256"
        },
        {
          "internalType": "uint256",
          "name": "_orderTotal",
          "type": "uint256"
        }
      ],
      "name": "updateUserData",
      "outputs": [],
      "stateMutability": "nonpayable",
      "type": "function"
    },
    {
      "inputs": [
        {
          "internalType": "address",
          "name": "",
          "type": "address"
        }
      ],
      "name": "userData",
      "outputs": [
        {
          "internalType": "string",
          "name": "name",
          "type": "string"
        },
        {
          "internalType": "string",
          "name": "email",
          "type": "string"
        },
        {
          "internalType": "string",
          "name": "shippingAddress",
          "type": "string"
        },
        {
          "internalType": "string",
          "name": "expectedDayOfArrival",
          "type": "string"
        },
        {
          "internalType": "uint256",
          "name": "phoneNumber",
          "type": "uint256"
        },
        {
          "internalType": "uint256",
          "name": "orderTotal",
          "type": "uint256"
        }
      ],
      "stateMutability": "view",
      "type": "function"
    }
  ],
  "bytecode": "0x608060405234801561001057600080fd5b506109d2806100206000396000f3fe608060405234801561001057600080fd5b50600436106100415760003560e01c806322e8c87d146100465780636afa6efc14610069578063c89109131461007e575b600080fd5b61004e610091565b6040516100609695949392919061065e565b60405180910390f35b61007c610077366004610764565b610321565b005b61004e61008c366004610823565b6103c4565b6060806060806000806000806000336001600160a01b03166001600160a01b03168152602001908152602001600020905080600001816001018260020183600301846004015485600501548580546100e890610853565b80601f016020809104026020016040519081016040528092919081815260200182805461011490610853565b80156101615780601f1061013657610100808354040283529160200191610161565b820191906000526020600020905b81548152906001019060200180831161014457829003601f168201915b5050505050955084805461017490610853565b80601f01602080910402602001604051908101604052809291908181526020018280546101a090610853565b80156101ed5780601f106101c2576101008083540402835291602001916101ed565b820191906000526020600020905b8154815290600101906020018083116101d057829003601f168201915b5050505050945083805461020090610853565b80601f016020809104026020016040519081016040528092919081815260200182805461022c90610853565b80156102795780601f1061024e57610100808354040283529160200191610279565b820191906000526020600020905b81548152906001019060200180831161025c57829003601f168201915b5050505050935082805461028c90610853565b80601f01602080910402602001604051908101604052809291908181526020018280546102b890610853565b80156103055780601f106102da57610100808354040283529160200191610305565b820191906000526020600020905b8154815290600101906020018083116102e857829003601f168201915b5050505050925096509650965096509650965050909192939495565b3360009081526020819052604090208061033b88826108dc565b506001810161034a87826108dc565b506002810161035986826108dc565b506003810161036885826108dc565b50600481018390556005810182905560405133907fbe06217625981e44127fe80bfd79ea4a35244184750535fa17a2c163227d8ab8906103b3908a908a908a908a908a908a9061065e565b60405180910390a250505050505050565b6000602081905290815260409020805481906103df90610853565b80601f016020809104026020016040519081016040528092919081815260200182805461040b90610853565b80156104585780601f1061042d57610100808354040283529160200191610458565b820191906000526020600020905b81548152906001019060200180831161043b57829003601f168201915b50505050509080600101805461046d90610853565b80601f016020809104026020016040519081016040528092919081815260200182805461049990610853565b80156104e65780601f106104bb576101008083540402835291602001916104e6565b820191906000526020600020905b8154815290600101906020018083116104c957829003601f168201915b5050505050908060020180546104fb90610853565b80601f016020809104026020016040519081016040528092919081815260200182805461052790610853565b80156105745780601f1061054957610100808354040283529160200191610574565b820191906000526020600020905b81548152906001019060200180831161055757829003601f168201915b50505050509080600301805461058990610853565b80601f01602080910402602001604051908101604052809291908181526020018280546105b590610853565b80156106025780601f106105d757610100808354040283529160200191610602565b820191906000526020600020905b8154815290600101906020018083116105e557829003601f168201915b5050505050908060040154908060050154905086565b6000815180845260005b8181101561063e57602081850181015186830182015201610622565b506000602082860101526020601f19601f83011685010191505092915050565b60c08152600061067160c0830189610618565b82810360208401526106838189610618565b905082810360408401526106978188610618565b905082810360608401526106ab8187610618565b6080840195909552505060a00152949350505050565b634e487b7160e01b600052604160045260246000fd5b600082601f8301126106e857600080fd5b813567ffffffffffffffff80821115610703576107036106c1565b604051601f8301601f19908116603f0116810190828211818310171561072b5761072b6106c1565b8160405283815286602085880101111561074457600080fd5b836020870160208301376000602085830101528094505050505092915050565b60008060008060008060c0878903121561077d57600080fd5b863567ffffffffffffffff8082111561079557600080fd5b6107a18a838b016106d7565b975060208901359150808211156107b757600080fd5b6107c38a838b016106d7565b965060408901359150808211156107d957600080fd5b6107e58a838b016106d7565b955060608901359150808211156107fb57600080fd5b5061080889828a016106d7565b9350506080870135915060a087013590509295509295509295565b60006020828403121561083557600080fd5b81356001600160a01b038116811461084c57600080fd5b9392505050565b600181811c9082168061086757607f821691505b60208210810361088757634e487b7160e01b600052602260045260246000fd5b50919050565b601f8211156108d757600081815260208120601f850160051c810160208610156108b45750805b601f850160051c820191505b818110156108d3578281556001016108c0565b5050505b505050565b815167ffffffffffffffff8111156108f6576108f66106c1565b61090a816109048454610853565b8461088d565b602080601f83116001811461093f57600084156109275750858301515b600019600386901b1c1916600185901b1785556108d3565b600085815260208120601f198616915b8281101561096e5788860151825594840194600190910190840161094f565b508582101561098c5787850151600019600388901b60f8161c191681555b5050505050600190811b0190555056fea2646970667358221220eefea90da948e42f635236da0dd807f73b136368ec32c16d1dd7dd6fefc1fe6964736f6c63430008110033",
  "linkReferences": {},
  "deployedLinkReferences": {}
}